{
  "contractName": "VotingSystem",
  "abi": [
    {
      "inputs": [],
      "stateMutability": "nonpayable",
      "type": "constructor"
    },
    {
      "anonymous": false,
      "inputs": [
        {
          "indexed": false,
          "internalType": "string",
          "name": "contenderName",
          "type": "string"
        }
      ],
      "name": "ContenderAdded",
      "type": "event"
    },
    {
      "anonymous": false,
      "inputs": [
        {
          "indexed": false,
          "internalType": "address",
          "name": "voter",
          "type": "address"
        },
        {
          "indexed": false,
          "internalType": "string",
          "name": "contenderName",
          "type": "string"
        }
      ],
      "name": "Voted",
      "type": "event"
    },
    {
      "inputs": [
        {
          "internalType": "string",
          "name": "",
          "type": "string"
        }
      ],
      "name": "contenderVotes",
      "outputs": [
        {
          "internalType": "uint256",
          "name": "",
          "type": "uint256"
        }
      ],
      "stateMutability": "view",
      "type": "function",
      "constant": true
    },
    {
      "inputs": [
        {
          "internalType": "uint256",
          "name": "",
          "type": "uint256"
        }
      ],
      "name": "contenders",
      "outputs": [
        {
          "internalType": "string",
          "name": "",
          "type": "string"
        }
      ],
      "stateMutability": "view",
      "type": "function",
      "constant": true
    },
    {
      "inputs": [
        {
          "internalType": "address",
          "name": "",
          "type": "address"
        }
      ],
      "name": "hasVoted",
      "outputs": [
        {
          "internalType": "bool",
          "name": "",
          "type": "bool"
        }
      ],
      "stateMutability": "view",
      "type": "function",
      "constant": true
    },
    {
      "inputs": [],
      "name": "owner",
      "outputs": [
        {
          "internalType": "address",
          "name": "",
          "type": "address"
        }
      ],
      "stateMutability": "view",
      "type": "function",
      "constant": true
    },
    {
      "inputs": [],
      "name": "getContenders",
      "outputs": [
        {
          "internalType": "string[]",
          "name": "",
          "type": "string[]"
        }
      ],
      "stateMutability": "view",
      "type": "function",
      "constant": true
    },
    {
      "inputs": [
        {
          "internalType": "string",
          "name": "contenderName",
          "type": "string"
        }
      ],
      "name": "addContender",
      "outputs": [],
      "stateMutability": "nonpayable",
      "type": "function"
    },
    {
      "inputs": [
        {
          "internalType": "string",
          "name": "contenderName",
          "type": "string"
        }
      ],
      "name": "vote",
      "outputs": [],
      "stateMutability": "nonpayable",
      "type": "function"
    },
    {
      "inputs": [],
      "name": "getWinner",
      "outputs": [
        {
          "internalType": "string",
          "name": "",
          "type": "string"
        }
      ],
      "stateMutability": "view",
      "type": "function",
      "constant": true
    }
  ],
  "bytecode": "0x608060405234801561001057600080fd5b50336000806101000a81548173ffffffffffffffffffffffffffffffffffffffff021916908373ffffffffffffffffffffffffffffffffffffffff160217905550611270806100606000396000f3fe608060405234801561001057600080fd5b50600436106100885760003560e01c80638da5cb5b1161005b5780638da5cb5b146101275780638e7ea5b2146101455780638eb31d9614610163578063fc36e15b1461019357610088565b806309eef43e1461008d5780632fa7ee08146100bd5780633c71c86f146100ed5780636ec647e81461010b575b600080fd5b6100a760048036038101906100a291906109d2565b6101af565b6040516100b49190610d64565b60405180910390f35b6100d760048036038101906100d291906109fb565b6101cf565b6040516100e49190610e21565b60405180910390f35b6100f56101fd565b6040516101029190610d42565b60405180910390f35b610125600480360381019061012091906109fb565b6102d6565b005b61012f6103fe565b60405161013c9190610cf7565b60405180910390f35b61014d610422565b60405161015a9190610d7f565b60405180910390f35b61017d60048036038101906101789190610a3c565b610638565b60405161018a9190610d7f565b60405180910390f35b6101ad60048036038101906101a891906109fb565b6106e4565b005b60036020528060005260406000206000915054906101000a900460ff1681565b6002818051602081018201805184825260208301602085012081835280955050505050506000915090505481565b60606001805480602002602001604051908101604052809291908181526020016000905b828210156102cd57838290600052602060002001805461024090610ff8565b80601f016020809104026020016040519081016040528092919081815260200182805461026c90610ff8565b80156102b95780601f1061028e576101008083540402835291602001916102b9565b820191906000526020600020905b81548152906001019060200180831161029c57829003601f168201915b505050505081526020019060010190610221565b50505050905090565b60008054906101000a900473ffffffffffffffffffffffffffffffffffffffff1673ffffffffffffffffffffffffffffffffffffffff163373ffffffffffffffffffffffffffffffffffffffff1614610364576040517f08c379a000000000000000000000000000000000000000000000000000000000815260040161035b90610de1565b60405180910390fd5b60018190806001815401808255809150506001900390600052602060002001600090919091909150908051906020019061039f92919061089d565b5060006002826040516103b29190610cc9565b9081526020016040518091039020819055507f7da62f36645870c480b0d25001b7fd214f3ed9ab4417793147aff5fa36c8ead0816040516103f39190610d7f565b60405180910390a150565b60008054906101000a900473ffffffffffffffffffffffffffffffffffffffff1681565b606060006001805490501161046c576040517f08c379a000000000000000000000000000000000000000000000000000000000815260040161046390610dc1565b60405180910390fd5b60606000805b60018054905081101561062f57816002600183815481106104bc577f4e487b7100000000000000000000000000000000000000000000000000000000600052603260045260246000fd5b906000526020600020016040516104d39190610ce0565b908152602001604051809103902054111561061c57600260018281548110610524577f4e487b7100000000000000000000000000000000000000000000000000000000600052603260045260246000fd5b9060005260206000200160405161053b9190610ce0565b908152602001604051809103902054915060018181548110610586577f4e487b7100000000000000000000000000000000000000000000000000000000600052603260045260246000fd5b90600052602060002001805461059b90610ff8565b80601f01602080910402602001604051908101604052809291908181526020018280546105c790610ff8565b80156106145780601f106105e957610100808354040283529160200191610614565b820191906000526020600020905b8154815290600101906020018083116105f757829003601f168201915b505050505092505b80806106279061105b565b915050610472565b50819250505090565b6001818154811061064857600080fd5b90600052602060002001600091509050805461066390610ff8565b80601f016020809104026020016040519081016040528092919081815260200182805461068f90610ff8565b80156106dc5780601f106106b1576101008083540402835291602001916106dc565b820191906000526020600020905b8154815290600101906020018083116106bf57829003601f168201915b505050505081565b60006002826040516106f69190610cc9565b9081526020016040518091039020541015610746576040517f08c379a000000000000000000000000000000000000000000000000000000000815260040161073d90610e01565b60405180910390fd5b600360003373ffffffffffffffffffffffffffffffffffffffff1673ffffffffffffffffffffffffffffffffffffffff16815260200190815260200160002060009054906101000a900460ff16156107d3576040517f08c379a00000000000000000000000000000000000000000000000000000000081526004016107ca90610da1565b60405180910390fd5b60016002826040516107e59190610cc9565b908152602001604051809103902060008282546108029190610f18565b925050819055506001600360003373ffffffffffffffffffffffffffffffffffffffff1673ffffffffffffffffffffffffffffffffffffffff16815260200190815260200160002060006101000a81548160ff0219169083151502179055507fcb6783276e8a4347387036bbfea000268f0a4b1f8c46ac79980609f2af8d2acd3382604051610892929190610d12565b60405180910390a150565b8280546108a990610ff8565b90600052602060002090601f0160209004810192826108cb5760008555610912565b82601f106108e457805160ff1916838001178555610912565b82800160010185558215610912579182015b828111156109115782518255916020019190600101906108f6565b5b50905061091f9190610923565b5090565b5b8082111561093c576000816000905550600101610924565b5090565b600061095361094e84610e61565b610e3c565b90508281526020810184848401111561096b57600080fd5b610976848285610fb6565b509392505050565b60008135905061098d8161120c565b92915050565b600082601f8301126109a457600080fd5b81356109b4848260208601610940565b91505092915050565b6000813590506109cc81611223565b92915050565b6000602082840312156109e457600080fd5b60006109f28482850161097e565b91505092915050565b600060208284031215610a0d57600080fd5b600082013567ffffffffffffffff811115610a2757600080fd5b610a3384828501610993565b91505092915050565b600060208284031215610a4e57600080fd5b6000610a5c848285016109bd565b91505092915050565b6000610a718383610b0c565b905092915050565b610a8281610f6e565b82525050565b6000610a9382610eb7565b610a9d8185610eda565b935083602082028501610aaf85610e92565b8060005b85811015610aeb5784840389528151610acc8582610a65565b9450610ad783610ecd565b925060208a01995050600181019050610ab3565b50829750879550505050505092915050565b610b0681610f80565b82525050565b6000610b1782610ec2565b610b218185610eeb565b9350610b31818560208601610fc5565b610b3a81611131565b840191505092915050565b6000610b5082610ec2565b610b5a8185610efc565b9350610b6a818560208601610fc5565b610b7381611131565b840191505092915050565b6000610b8982610ec2565b610b938185610f0d565b9350610ba3818560208601610fc5565b80840191505092915050565b60008154610bbc81610ff8565b610bc68186610f0d565b94506001821660008114610be15760018114610bf257610c25565b60ff19831686528186019350610c25565b610bfb85610ea2565b60005b83811015610c1d57815481890152600182019150602081019050610bfe565b838801955050505b50505092915050565b6000610c3b601783610efc565b9150610c4682611142565b602082019050919050565b6000610c5e601883610efc565b9150610c698261116b565b602082019050919050565b6000610c81602783610efc565b9150610c8c82611194565b604082019050919050565b6000610ca4601983610efc565b9150610caf826111e3565b602082019050919050565b610cc381610fac565b82525050565b6000610cd58284610b7e565b915081905092915050565b6000610cec8284610baf565b915081905092915050565b6000602082019050610d0c6000830184610a79565b92915050565b6000604082019050610d276000830185610a79565b8181036020830152610d398184610b45565b90509392505050565b60006020820190508181036000830152610d5c8184610a88565b905092915050565b6000602082019050610d796000830184610afd565b92915050565b60006020820190508181036000830152610d998184610b45565b905092915050565b60006020820190508181036000830152610dba81610c2e565b9050919050565b60006020820190508181036000830152610dda81610c51565b9050919050565b60006020820190508181036000830152610dfa81610c74565b9050919050565b60006020820190508181036000830152610e1a81610c97565b9050919050565b6000602082019050610e366000830184610cba565b92915050565b6000610e46610e57565b9050610e52828261102a565b919050565b6000604051905090565b600067ffffffffffffffff821115610e7c57610e7b611102565b5b610e8582611131565b9050602081019050919050565b6000819050602082019050919050565b60008190508160005260206000209050919050565b600081519050919050565b600081519050919050565b6000602082019050919050565b600082825260208201905092915050565b600082825260208201905092915050565b600082825260208201905092915050565b600081905092915050565b6000610f2382610fac565b9150610f2e83610fac565b9250827fffffffffffffffffffffffffffffffffffffffffffffffffffffffffffffffff03821115610f6357610f626110a4565b5b828201905092915050565b6000610f7982610f8c565b9050919050565b60008115159050919050565b600073ffffffffffffffffffffffffffffffffffffffff82169050919050565b6000819050919050565b82818337600083830152505050565b60005b83811015610fe3578082015181840152602081019050610fc8565b83811115610ff2576000848401525b50505050565b6000600282049050600182168061101057607f821691505b60208210811415611024576110236110d3565b5b50919050565b61103382611131565b810181811067ffffffffffffffff8211171561105257611051611102565b5b80604052505050565b600061106682610fac565b91507fffffffffffffffffffffffffffffffffffffffffffffffffffffffffffffffff821415611099576110986110a4565b5b600182019050919050565b7f4e487b7100000000000000000000000000000000000000000000000000000000600052601160045260246000fd5b7f4e487b7100000000000000000000000000000000000000000000000000000000600052602260045260246000fd5b7f4e487b7100000000000000000000000000000000000000000000000000000000600052604160045260246000fd5b6000601f19601f8301169050919050565b7f596f75206861766520616c726561647920766f7465642e000000000000000000600082015250565b7f4e6f20636f6e74656e6465727320617661696c61626c652e0000000000000000600082015250565b7f4f6e6c7920746865206f776e65722063616e20706572666f726d20746869732060008201527f616374696f6e2e00000000000000000000000000000000000000000000000000602082015250565b7f436f6e74656e64657220646f6573206e6f742065786973742e00000000000000600082015250565b61121581610f6e565b811461122057600080fd5b50565b61122c81610fac565b811461123757600080fd5b5056fea2646970667358221220c71a588a931e664cf858c5a677a3f13133d75b9e58a59423224f889bac5ba3c764736f6c63430008010033",
  "immutableReferences": {},
  "source": "//SPDX-License-Identifier:MIT\r\npragma solidity ^0.8.1;\r\n\r\ncontract VotingSystem {\r\n    \r\n    // State variables\r\n    address public owner;\r\n    string[] public contenders;\r\n    mapping(string => uint256) public contenderVotes;\r\n    mapping(address => bool) public hasVoted;\r\n\r\n    // Events to log important actions\r\n    event ContenderAdded(string contenderName);\r\n    event Voted(address voter, string contenderName);\r\n\r\n    // Constructor to set the owner when the contract is deployed\r\n    constructor(){\r\n        owner = msg.sender;\r\n    }\r\n\r\n    function getContenders() public view returns(string[] memory ){\r\n        return contenders;\r\n    }\r\n    // Function to add a contender\r\n    function addContender(string memory contenderName) public onlyOwner {\r\n        contenders.push(contenderName);\r\n        contenderVotes[contenderName] = 0;\r\n        emit ContenderAdded(contenderName);\r\n    }\r\n\r\n    // Function to cast a vote\r\n    function vote(string memory contenderName) public {\r\n        require(contenderVotes[contenderName] >= 0, \"Contender does not exist.\");\r\n        require(!hasVoted[msg.sender], \"You have already voted.\");\r\n\r\n        contenderVotes[contenderName] += 1;\r\n        hasVoted[msg.sender] = true;\r\n        emit Voted(msg.sender, contenderName);\r\n    }\r\n\r\n    // Function to get the winner\r\n    function getWinner() public view returns (string memory) {\r\n        require(contenders.length > 0, \"No contenders available.\");\r\n\r\n        string memory winner;\r\n        uint256 maxVotes = 0;\r\n\r\n        for (uint256 i = 0; i < contenders.length; i++) {\r\n            if (contenderVotes[contenders[i]] > maxVotes) {\r\n                maxVotes = contenderVotes[contenders[i]];\r\n                winner = contenders[i];\r\n            }\r\n        }\r\n\r\n        return winner;\r\n    }\r\n\r\n    // Modifier to ensure that only the owner can perform certain actions\r\n    modifier onlyOwner() {\r\n        require(msg.sender == owner, \"Only the owner can perform this action.\");\r\n        _;\r\n    }\r\n}\r\n\r\n\r\n",
  "sourcePath": "C:\\Users\\SHALOM\\Desktop\\VotingDApp\\contracts\\Voting.sol",
  "compiler": {
    "name": "solc",
    "version": "0.8.1+commit.df193b15.Emscripten.clang"
  },
  "schemaVersion": "3.4.16",
  "updatedAt": "2024-02-16T05:42:56.630Z",
  "networkType": "ethereum",
  "devdoc": {
    "kind": "dev",
    "methods": {},
    "version": 1
  },
  "userdoc": {
    "kind": "user",
    "methods": {},
    "version": 1
  }
}